:400000000080002011000000351600003516000008B5044B1A6803F53F5302331A6001F011FB00BFFA46004010B5054C237833B9044B13B10448AFF300800123237010BDD4
:400040003881FF1F00000000E8170000084B10B51BB108490848AFF300800848036803B910BD074B002BFBD0BDE81040184700BF000000003C81FF1FE8170000C880FF1F24
:400080000000000000F1080343604FF0FF328260C360036100230360704700BF00230361704700BF43684B609A688A609A68516099600861036801330360704730B40D6866
:4000C000B5F1FF3F01D1026907E000F1080200E01A4653681C68A542FAD253684B6099608A605160086103680133036030BC704703694268816891608268416851605A68CD
:40010000904201D182685A60002202611A68013A1A601868704700BF82B0002301934FF0A00383F31188BFF36F8FBFF34F8F019B002BFCD002B0704706480068006880F31E
:40014000088862B661B6BFF34F8FBFF36F8F00DF00BF000008ED00E04FF0807340F8043C21F0010140F8081C034B40F80C3C40F8202C4038704700BF19010000000000009A
:40018000074B19680868B0E8F00F80F30988BFF36F8F4FF0000080F311884EF00D0E70474884FF1F4FF0A00383F31188BFF36F8FBFF34F8F024A136801331360704700BF57
:4001C000CC80FF1F034A1368013B13600BB983F311887047CC80FF1F0000000000000000EFF30980BFF36F8F0D4B1A6820E9F00F10602DE908404FF0A00080F3118800F084
:400200008BFD4FF0000080F31188BDE8084019680868B0E8F00F80F30988BFF36F8F70474884FF1F08B54FF0A00383F31188BFF36F8FBFF34F8F00F069FC18B14FF0805204
:40024000024B1A60002383F3118808BD04ED00E0054B00221A6005490A6045F6BF51044A116007221A60704710E000E018E000E014E000E010B50B4B1A6842F460021A60BC
:400280001A6842F060421A60FFF7E2FF0024064B1C60FFF751FF00F03FFDFFF73DFF204610BD00BF20ED00E0CC80FF1F10B50446FFF778FFA26BE36B9A4201D1012400E02F
:4002C0000024FFF77FFF204610BD00BF10B50446FFF768FFA36B0BB9012400E00024FFF771FF204610BD00BF70B504461646856B026C3AB9036843BB806800F0F1FD002347
:40030000A36029E06EB9406801F05AFA6268236C13446360A268934219D32368636000201AE0C06801F04CFA236C5B42E2681A44E26021688A4202D2A2681344E360022E85
:4003400007D145B1013D002006E0002004E0002002E0002000E000200135A56370BD00BF026C72B110B5C3681344C3608468A34201D30368C3600C46C168204601F020FA01
:4003800010BD704738B50546FFF70CFF95F8454064B20AE06B6A53B105F1240000F018FD08B100F085FD013C64B2002CF2DCFF2385F84530FFF706FFFFF7F4FE95F84440F6
:4003C00064B20AE02B6953B105F1100000F000FD08B100F06DFD013C64B2002CF2DCFF2385F84430FFF7EEFE38BD00BF38B504460D46FFF7D7FE2168E26B236C03FB02109F
:40040000A0600020A0636160013A02FB0313E360FF2384F8443084F845307DB92369ABB104F1100000F0D4FC80B14FF08052094B1A60BFF34F8FBFF36F8F07E004F1100025
:40044000FFF720FE04F12400FFF71CFEFFF7BAFE012038BD04ED00E010B5029B0C4609B91B6000E01A60D8631C6401211846FFF7BDFF10BDF0B583B0054617460E4611B10F
:4004800000FB01F000E00020483000F01FFF044638B100903B4600F1480231462846FFF7DBFF204603B0F0BDF0B585B004460F4601921E460025FFF775FEA26BE36B9A429B
:4004C00001D3022E21D1324639462046FFF70CFF636A6BB104F1240000F07AFC88B14FF08052324B1A60BFF34F8FBFF36F8F08E038B14FF080522D4B1A60BFF34F8FBFF3A9
:400500006F8FFFF75FFE01204EE0019B1BB9FFF759FE002048E01DB902A800F093FC0125FFF750FE00F0E2FAFFF73CFE94F844305BB2B3F1FF3F02D1002384F8443094F850
:4005400045305BB2B3F1FF3F02D1002384F84530FFF738FE01A902A800F07EFCF0B92046FFF7A4FEA0B1019904F1100000F00CFC2046FFF707FF00F049FB00289BD14FF04E
:4005800080520A4B1A60BFF34F8FBFF36F8F92E72046FFF7F7FE00F039FB8CE72046FFF7F1FE00F033FB002005B0F0BD04ED00E0F8B5EFF311864FF0A00484F31188BFF372
:4005C0006F8FBFF34F8F856BC46BA54201D3022B1BD11746054690F8454064B21A46FFF783FEB4F1FF3F0AD16B6A83B105F1240000F0EEFB68B177B1012038600CE0013403
:4006000064B285F84540012006E0002004E0012002E0012000E0012086F31188F8BD00BFF0B585B004460F4601920026FFF7BAFDA56BC5B139462046FFF792FE013DA563D6
:40064000236963B104F1100000F0C2FB38B14FF08052304B1A60BFF34F8FBFF36F8FFFF7B1FD012053E0019B1BB9FFF7ABFD00204DE01EB902A800F0E5FB0126FFF7A2FD99
:4006800000F034FAFFF78EFD94F844305BB2B3F1FF3F02D1002384F8443094F845305BB2B3F1FF3F02D1002384F84530FFF78AFD01A902A800F0D0FBF0B92046FFF706FE5A
:4006C000A0B1019904F1240000F05EFB2046FFF759FE00F09BFA0028A8D14FF080520D4B1A60BFF34F8FBFF36F8F9FE72046FFF749FE00F08BFA99E72046FFF743FE00F006
:4007000085FA2046FFF7E2FD00288FD0002005B0F0BD00BF04ED00E000230BE0074A52F8332032B9054A42F8331002EBC303586070470133092BF1D9704700BFC404002001
:4007400070B504460D461646FFF72CFD94F844305BB2B3F1FF3F02D1002384F8443094F845305BB2B3F1FF3F02D1002384F84530FFF728FDA36B2BB93246294604F1240083
:4007800000F012FB2046FFF7FDFD70BD074B9B6A1B6823B94FF0FF32044BDA627047034B9A6AD268D2685268DA6270475481FF1F10B50446006B00F0DFFD204600F0DCFD76
:4007C00010BD00BF2DE9F04781460D4617469A46089EDDF824800A9C9200A521206B00F0FAFF236B07F18042013A03EB820727F00707002306E0E95CE21882F83410EA5CCD
:4008000012B101330B2BF6D9002384F83F301F2E00D91F26E662266400256564201DFFF73DFC04F11800FFF739FC2461C6F12006A6616462A56484F84C50524649463846EA
:40084000FFF78AFC2060B8F1000F01D0C8F80040BDE8F08770B5002407E004EB8402930010481844FFF70EFC01341F2CF5D90E4C04F52C763046FFF705FC04F5317528462E
:40088000FFF700FC04F11400FFF7FCFB04F53670FFF7F8FB2046FFF7F5FBA662C4F8EC5270BD00BF8481FF1F5481FF1F38B50546FFF778FC264BD3F8F0220132C3F8F02288
:4008C000D3F8F4324BB9224BC3F8F452D3F8F032012B10D1FFF7BEFF0DE01D4BD3F8F8324BB91B4BD3F8F432DA6AEB6A9A4202D8174BC3F8F452164CD4F8FC320133C4F845
:40090000FC32EB6A012202FA03F1D4F800230A43C4F8002304F1300003EB83039A00291D1044FFF7BFFBFFF74DFCD4F8F8326BB1D4F8F432DA6AEB6A9A4207D24FF08052E7
:40094000044B1A60BFF34F8FBFF36F8F38BD00BF5481FF1F04ED00E038B517E0FFF722FC0D4CD4F8E432DD68281DFFF7C1FBD4F8F032013BC4F8F032D4F80433013BC4F884
:400980000433FFF71FFC2846FFF712FF024BD3F80433002BE2D138BD5481FF1F08B5FFF7DBFFFCE770B504460E461E4BD3F80853D3F8F4020430FFF79BFB60B9194BD3F8DA
:4009C000F422D16A012202FA01F1D3F8002322EA0102C3F80023B4F1FF3F07D136B11148D0F8F4120431FFF75DFB70BD2C440D4BD3F8F4325C60A54208D90A4BD3F8EC02F6
:400A0000D3F8F4120431FFF759FB70BD054DA86AD5F8F4120431FFF751FBEB6A9C4200D2EC6270BD5481FF1F2DE9F04385B006460F4615469846900000F048FC60B1814624
:400A4000502000F043FC044610B1C0F8309004E0484600F091FC00E000248CB10023039302940D9B01930C9B009343462A4639463046FFF7A7FE2046FFF718FF012001E061
:400A80004FF0FF3005B0BDE8F08300BF00B583B0124B019300230093642211491148FFF7C3FF012801D100F0B5FA012813D14FF0A00383F31188BFF36F8FBFF34F8F0A4B8F
:400AC0004FF0FF32DA620122C3F8F8220022C3F80823FFF7CFFB03B05DF804FB6484FF1FEC1700009D0900005481FF1F034AD2F80C330133C2F80C33704700BF5481FF1FF5
:400B0000014BD3F8080370475481FF1F2DE9F0413D4BD3F80C33002B62D13B4BD3F808730137C3F8087367B99A6AD3F8EC129962C3F8EC22D3F814230132C3F81423FFF7AA
:400B400025FE314BDB6A9F4205D24FF000083BE04FF0010801E04FF000082B4B9B6A1B6823B94FF0FF32284BDA622DE0264B9B6ADB68DC6863689F4202D2234AD36223E0DF
:400B8000261D3046FFF7B4FAA36A1BB104F11800FFF7AEFAE36A012202FA03F11A4DD5F800230A43C5F8002305F1300003EB83039A0031461044FFF775FAE26AD5F8F432CD
:400BC000DB6A9A42C4D2C8E70F49D1F8F432DB6A03EB83039A000A44136B012B09D80AE0094AD2F818330133C2F818334FF0000801E04FF00108044BD3F81C330BB14FF0BD
:400C000001084046BDE8F0815481FF1F70B5FFF7C9FA324BD3F80C23013AC3F80C23D3F80C33002B53D12D4BD3F8F03243BB002450E02A4C236ADD6805F11800FFF758FAF4
:400C40002E1D3046FFF754FAEB6A012202FA03F1D4F800230A43C4F8002304F1300003EB83039A0031461044FFF71CFAEA6AD4F8F432DB6A9A4204D30122C4F81C2300E0A6
:400C80000025164B5B69002BD3D10DB1FFF77EFD124BD3F8184364B1FFF738FF18B101220E4BC3F81C23013CF6D100220B4BC3F818230A4BD3F81C335BB14FF08052084B97
:400CC0001A60BFF34F8FBFF36F8F012402E0002400E00024FFF776FA204670BD5481FF1F04ED00E010B548B10446FFF7FFFE00212046FFF757FEFFF789FF00E0002038B912
:400D00004FF08052034B1A60BFF34F8FBFF36F8F10BD00BF04ED00E01A4BD3F80C3323B10122184BC3F81C23704710B4154A0023C2F81C33D2F80033B3FA83F3DBB2C3F113
:400D40001F039800C418A10011444C6B64684C6302F130011844820008320A44944206D1606803EB83018A0006490A445063054903EB83039A000A44536BDB68C1F8F432E0
:400D800010BC70475481FF1F10B50C46054BD3F8F4121831FFF792F901212046FFF702FE10BD00BF5481FF1F38B50D461446074BD3F8F4121831FFF775F90CB14FF0FF3524
:400DC00021462846FFF7EEFD38BD00BF5481FF1F38B5C368DC6804F118052846FFF788F9164BD3F80C33B3B9251D2846FFF780F9E36A012202FA03F11048D0F800230A435D
:400E0000C0F80023303003EB83039A0029461044FFF748F903E029460948FFF743F9E26A064BD3F8F432DB6A9A4204D90120034BC3F81C0338BD002038BD00BF5481FF1F09
:400E40006881FF1F034BD3F814230260D3F80833436070475481FF1FF8B504460D46FFF7A1F9124BD3F808136268881A2B68B3F1FF3F14D027680D4ED6F81463B74201D08B
:400E800091420ED2984206D21B1A2B602046FFF7D9FF002406E000232B60012402E0002400E00124FFF78EF92046F8BD5481FF1F0122024BC3F81C23704700BF5481FF1F93
:400EC000064BD3F8F8322BB1044BD3F80C331BB90220704701207047002070475481FF1F002838D038B50346426C013A4264C06A196C884231D092BB1C461D1D2846FFF76C
:400F0000F7F880B9E26A02EB82018B0015490B441B6B43B9012303FA02F2D1F8003323EA0202C1F80023236CE362C3F12002A261012404FA03F10B48D0F800230A43C0F80E
:400F40000023303003EB83039A0029461044FFF7A9F8204638BD00207047002038BD002038BD00BF5481FF1F064B1A6813680BB9012300E00023036013B9D368186870479E
:400F8000002070477484FF1F08B54160006191420AD8D21A83699A4211D2011D0A4B5868FFF78CF8002008BD9A4201D2994208D2011D054B1868FFF781F8002008BD0120E0
:400FC00008BD012008BD00BF7484FF1F70B5FFF7E9F80E4B9B68B3B90C4C04F10C063046FFF750F804F120052846FFF74BF82660656000220C210A20FFF73CFAA06010B128
:401000000349FFF789FBFFF7DDF870BD7484FF1FF417000000B583B0FFF7D8FF094B9B685BB1094B01931F23009300234FF4806206490748FFF7F8FC00E0002003B05DF824
:4010400004FB00BF7484FF1FA884FF1FFC1700008512000030B585B0134CA56805B31C46019102920390052913DCFFF729FF022807D10023089A01A90B488068FFF714FA64
:401080000FE000231A4601A907488068FFF70CFA07E00023224601A92846FFF789FA00E0002005B030BD00BF7484FF1F70B582B01FE0DB681E68DC68251D2846FFF718F84E
:4010C000636A20469847E369012B12D1A36933449E4207D26360246129460B4B1868FEF7EDFF06E0002100910B4632462046FFF7B1FF054B1B681A68002ADAD1024A51683D
:401100001160536002B070BD7484FF1F38B50546FFF7F6FC0446074B9B6B984204D2FFF7C5FF01232B6001E000232B60014B9C63204638BD7484FF1F70B582B005460E467A
:401140000E4B1B68DB68DC68201DFEF7D1FFE369012B0ED1A1692B46324629442046FFF713FF30B1002100910B462A462046FFF771FF636A2046984702B070BD7484FF1FBE
:4011800070B582B006460C46FFF7B0FC01A8FFF7BDFF019B23BB054644B9B04206D3FFF735FD29463046FFF7C7FF1BE034B10E4B5B681B680BB9012400E000242246711B87
:4011C000094B9868FFF7BCFAFFF720FD50B94FF08052064B1A60BFF34F8FBFF36F8F01E0FFF714FD02B070BD7484FF1F04ED00E030B587B03AE0039B002B37DB059C63698B
:4012000013B1201DFEF774FF02A8FFF77FFF039B092B2BD8DFE803F00505052A1E2705052A1E0499A5690B46024629442046FFF7ABFED8B1636A20469847E369012B15D119
:40124000A269002100910B46049802442046FFF701FF0BE00499A1610346024601442046FFF792FE02E0204600F086F8002203A9034B9868FFF7D4F90028BCD107B030BDE8
:401280007484FF1F00B583B001A8FFF76DFE0199FFF776FFFFF7ACFFF6E700BF094A22F00702094BC3F838290020C3F83C0947F6F871C3F84419C3F84009516003F5146304
:4012C00013607047B884FF1F78FBFF1F70B50446FFF70CFC244BD3F848392BB9FFF7DEFF0122214BC3F8482934B1083414F0070F02D024F007040834621E47F6F6739A42D5
:401300002BD81949D1F8383901F6381101E0194613465A68944202D91A68002AF7D1134A93421CD00D6808351A680A605A68121B102A0CD91E1972605C6074680C4900E0AE
:4013400011460A6850688442FAD832600E605968084A13685B1A136002E0002500E00025FFF754FC284670BD78FBFF1FB8040020B0040020D080FF1FD0B170B50546A0F1C0
:401380000806FFF7B3FB55F8044C0A4A00E01A46136859688C42FAD845F8083C166055F8043C054A11680B441360FFF72FFC70BD704700BFB0040020D080FF1F034B044ABE
:4013C000DA62044A9A63044ADA6370470080FF1F81010000E10100002502000008B54FF47A70FFF77FFC00F093F90130054B184003D5013860F001000130C0B200F07CF9E1
:40140000EDE700BF0100008008B54FF4FA70FFF769FC00F091F90130054B184003D5013860F001000130C0B200F07AF9EDE700BF0100008000B583B062B6FFF7BFFF0B4DF8
:4014400001950324009400234FF4806208490948FFF7EAFA0195009400234FF4806206490648FFF7E1FAFFF711FBFEE71405002004180000DD1300000C180000091400000A
:40148000FEE700BF064B1B78DBB203F00701054A11701B09013213704422034B1A707047CF0100496E5800407658004008B50A46002100F090F908BD38B502221E4B1A70E0
:4014C00008224FF040231A70032103F5007319701A4B1B78DBB21A490B701A4B1A8041F25122023B1A80002419250CE0164B1B7803F0010343EA440404F003044FF4F07053
:4015000000F022F9013D0DB1032CEFD115B90320FFF7B6FF0D4B4FF480721A8007221A7000220B490A704820023108701A700222033B1A7038BD00BF00430040080100493D
:40154000A14600402242004025420040044000400640004008B500F033F908BD38B572B6254A137843F00403137000240CE0234D630019194A0011462A440846918828587A
:40158000FFF794FF0134E4B2052CF0D91C4A137843F0020313701032137843F00203137008224FF090411748FFF7D4FF082216491648FFF7CFFF082215491648FFF7CAFFF7
:4015C000082215491548FFF7C5FF154A137843F008031370134C61232370FFF76DFF812323700122104B1A70FFF74CFF0E220F490F48FFF7AFFF38BDE84600401418000037
:40160000035001400251004008000048C251004010000048F25100401800004812510040224300400048004004000840A0430040B043004008B500F097F803680C2B00D184
:40164000FEE7FEE708B5104E104D16E029686B68AC68002204E051F8040B43F8040B0432A242F8D1E868002203E0002143F8041B04328242F9D11035013E002EE6D100F042
:4016800079F8FFF7D7FEFEE7010000006018000008B5104A104B1A60104A136843F40073136000230AE0032B03D80D4A52F8231000E00C490C4A42F8231001332F2BF2D977
:4016C0000A4B1A780A4B1A70074A0A4B1A60FFF745FF08BD0004FA050CED00E014ED00E000000000351600000080FF1FBC760040C080FF1F08ED00E0044A137803F0FE03ED
:4017000000F0010018431070704700BF00510040024B187800F00100704700BF01510040044A137803F0FD03400000F0020018431070704700510040024B1878C0F340000F
:40174000704700BF015100400230800803D000BF01380046FCD17047EFF3108072B6704780F31088704700BF014B1868704700BF3481FF1F0E4B70B51E460E4C0025E41ACC
:40178000A410A54204D056F8253098470135F8E700F054F8084B094C1E46E41AA4100025A54204D056F8253098470135F8E770BD48180000481800004818000050180000FD
:4017C00010B5431E0A44914204D011F8014B03F8014FF8E710BD03460244934202D003F8011BFAE7704700000000000049444C4500000000546D725100000000546D7220A8
:4018000053766300426C696E6B790000426C696E6B79320020510040500000000140001000140140000800400140000A004C0140000200500140200043000000F8B500BF4F
:40184000F8BC08BC9E4670474D00000091160000F8B500BFF8BC08BC9E4670472900000070180000C880FF1F70000000E083000000000000AAAAAAAAF87F000000000000D9
:4018800000000000000000000000000000000000000000000000000000000000381800000000000000000000000000000000000000000000000000000000000000000000D8
:4018C00000000000000000000000000000000000000000000000000000000000D480FF1F000000000000000000000000000000000000000000000000000000000000000076
:4019000000000000000000000000000000000000000000000000000000000000000000000000000000000000000000000000000000000000000000000000000000000000A7
:401940000000000000000000000000000000000000000000000000000000000000000000000000000000000000000000000000000000000000000000000000000000000067
:401980000000000000000000000000000000000000000000000000000000000000000000000000000000000000000000000000000000000000000000000000000000000027
:4019C00000000000000000000000000000000000000000000000000000000000000000000000000000000000000000000000000000000000000000000000000000000000E7
:020000040003F7
:0200000480007A
:4000000000636300000000003C00000000000000000F0F0000000000000B0B000000000000000000000000000000000000000000000000000000000000000000000000008A
:400040000000000000000000000000000000000000000000000000000000000000000000000000000000000000000000000000000000000000000000000000000000000080
:400080000000000000000000000000000000000000000000000000000000000000000000000000000000000000000000000000000000000000000000000000000000000040
:4000C0000000000000000000000000000000000000000000000000000000000000000000000000000000000000000000000000000000000000000000000000000000000000
:4001000000000000000000000000000000000000000000000000000000000000000000000000000000000000000000000000000000000000000000000000000000000000BF
:0200000490006A
:0400000000004005B7
:0200000490105A
:04000000BC90ACAF55
:0200000490303A
:020000005E1E82
:0200000490402A
:4000000000000000000000000000000000000000000000000000000000000000000000000000000000000000000000000000000000000000000000000000000000000000C0
:400040000000000000000000000000000000000000000000000000000000000000000000000000000000000000000000000000000000000000000000000000000000000080
:400080000000000000000000000000000000000000000000000000000000000000000000000000000000000000000000000000000000000000000000000000000000000040
:4000C0000000000000000000000000000000000000000000000000000000000000000000000000000000000000000000000000000000000000000000000000000000000000
:0200000490501A
:0C00000000012E16106900012E206E87F2
:00000001FF