:400000000080002011000000AD050000AD05000008B5044B1A6803F53F5302331A6000F0CDFA00BFFA46004010B5054C237833B9044B13B10448AFF300800123237010BD4C
:400040006881FF1F0000000050150000084B10B51BB108490848AFF300800848036803B910BD074B002BFBD0BDE81040184700BF000000006C81FF1F50150000C880FF1FF8
:400080000000000008B500F0FFFA0130154B184003D5013860F001000130C0B200F0E8FA11490B780133114A82FB0302A2EBE37202EB420250001A1AD2B20A7000230BE049
:4000C00002EB42010A480144C95C013906480144012008710344DBB2022BF1D900F074FC08BD00BF010000808481FF1FABAAAA2ACC80FF1F08B500F0DBFA01300A4B184067
:4001000003D5013860F001000130C0B200F0C4FA012001F009F828B101F01EF8034B188100F0FAFF08BD00BF010000808481FF1F08B50138032812D8DFE800F002060A0E3F
:40014000084600F0E5FA08BD084600F0EDFA08BD084600F0F5FA08BD084600F0FDFA08BD1A4A538901339BB253811189642202FB01F2002A02DA02F57F42FF32B3EB124F34
:4001800022D310B500F0BCFA0130114B184003D5013860F001000130C0B200F0A5FA00210A4B59810B4CA07CFFF7C2FFA37C0133DBB2A374042B01D90122A2740121054B41
:4001C000987CFFF7B5FF10BD704700BF8481FF1F01000080CC80FF1F234A137B0133DBB21373092B3FD910B500F076FA01301F4B184003D5013860F001000130C0B200F055
:400200005FFA194B00241C735A7B01325A73012000F06CFB24E0144B5B7B2344144A134003D5013B63F00F0301331A4613F0070F00D07CB91046002A00DAD01DC0100D4918
:40024000114003D5013961F007010131C9B2C0B200F08EFB084B2344187D00F043FB01340C2CD8DD10BD70478481FF1F010000800F00008007000080CC80FF1F08B510B165
:40028000012805D008BDFFF735FFFFF769FF08BDFFF7A2FF08BD00BF10B562B60E4800F0FFFB00F0D5FB00F02DFB00F021FF00F033FF00240CE0094B23441B7933B1204643
:4002C000FFF7DCFF054B234400221A710134E4B2022CF0D9EDE700BF850000008481FF1FFEE700BFF0B40022174611E050F82760F3B226F0FF0608E001EB420511F812400F
:400300006D78A5550132013BDBB2002BF4D10137152FEBD9F0BC70470A4B1B78DBB203F00701094A11701B09013213708023A2F26272137002F6F31213704422034B1A70E5
:40034000704700BFCF0100496E5800407658004008B50A46002101F0F2F808BD08B501F0E3F808BD38B500242C4B1C80502202331A7004222A492B48FFF7F0FF02222A4BDF
:400380001A7008224FF040231A70032103F500731970264B1B78DBB225490B70254B1A8041F25122023B1A8019250CE0224B1B7803F0010343EA440404F003044FF4F07010
:4003C00001F076F8013D0DB1032CEFD115B90320FFF786FF194B4FF480721A8007221A70002217490A704820023108701A700222033B1A7004220A331A70124A137843F0D5
:4004000001031370013A137843F001031370013A137843F08003137038BD00BF8040004098010048004100400043004008010049A1460040224200402542004004400040D5
:4004400006400040A2430040012807D8044B53F820201844017A13780B431370704700BF54150000012808D8044B53F820201844017A137823EA01031370704754150000E4
:4004800038B572B6334A137843F00403137000240BE0314863001A19510001440A46098AD068FFF755FF0134E4B2052CF1D92B494FF09040FFF716FF0A25294B1D70294A52
:4004C000137843F0020313701032137843F002031370254C237843F040032370A2F58632513A137843F01003137008221F492048FFF734FF08221F491F48FFF72FFF082281
:400500001E491F48FFF72AFF08221E491E48FFF725FF08221D491E48FFF720FF2A461D491D48FFF71BFF1D4A137843F0080313701B4D61232B70FFF715FF81232B700122C1
:40054000184B1A70FFF7E8FE0E2221461648FFF705FF38BDE846004054150000580000488358004003500140A043004064010048025100406C010048C25100407401004880
:40058000F25100407C0100481251004084010048225100408C01004830510040224300400048004004000840B043004008B500F08FFF03680C2B00D1FEE7FEE708B5104EFB
:4005C000104D16E029686B68AC68002204E051F8040B43F8040B0432A242F8D1E868002203E0002143F8041B04328242F9D11035013E002EE6D100F071FFFFF74DFEFEE722
:4006000001000000AC15000008B5104A104B1A60104A136843F40073136000230AE0032B03D80D4A52F8231000E00C490C4A42F8231001332F2BF2D90A4B1A780A4B1A7019
:40064000074A0A4B1A60FFF71BFF08BD0004FA050CED00E014ED00E000000000AD0500000080FF1FBC760040C080FF1F08ED00E0044A137803F0FE0300F00100184310703A
:40068000704700BFF0510040024B187800F00100704700BFF1510040044A137803F0FD03400000F00200184310707047F0510040024B1878C0F34000704700BFF1510040A4
:4006C000044A137803F0FB03800000F00400184310707047F0510040024B1878C0F38000704700BFF1510040044A137803F0F703C00000F00800184310707047F051004010
:40070000024B1878C0F3C000704700BFF1510040044A137803F0FE0300F0010018431070704700BF00510040044A137803F0FD03400000F0020018431070704700510040B0
:40074000044A137803F0DF03400100F0200018431070704700510040044A137803F0BF03800100F040001843107070470051004010B50B4C237803F09F032370237803F088
:40078000F00323702378184340F010002070012000F04EFE237803F0EF03237010BD00BF2051004038B505460E4C237843F020032370237803F0BF032370002000F038FE01
:4007C000237803F0F003237023781D4345F010052570012000F02CFE237803F0EF03237038BD00BF2051004070B5354B1A7802F08002D2B21A7033490A7802F0F00242F08B
:400800000F020A7001310A7802F0F0020A7001310A7802F0F0020A701A7802F0DF021A701A7842F040021A704FF4CA76002000F0FFFD234D2B7843F010032B70012000F0F6
:40084000F7FD214B1C78E4B22B7803F0EF032B70002000F0EDFD04F00804E4B22B7843F010032B70012000F0E3FD2B7803F0EF032B7014B90A2000F0DBFD013E0CB1002EBA
:40088000D4D10F4A137803F0BF031370137803F08003DBB213700232137803F0F00313700132137803F0F00343F00F0313700132137803F0F00343F00F03137070BD00BF7A
:4008C00020510040225100402151004010B50446FFF78AFF2009FFF765FF04F00F00FFF761FF10BD08B5FFF7F1FF08BD10B50446FFF77AFF2009FFF73BFF04F00F00FFF773
:4009000037FF10BD08B5282000F07CFD0320FFF72FFF052000F076FD0320FFF729FF0F2000F070FD0320FFF723FF012000F06AFD0220FFF71DFF052000F064FD0620FFF731
:40094000D5FF0E20FFF7D2FF2C20FFF7CFFF0820FFF7CCFF0120FFF7C9FF0C20FFF7C6FF0320FFF7C3FF052000F04CFD08BD00BF08B5032819D8DFE800F002070D1381F008
:400980008000FFF7B3FF08BDA1F14000C0B2FFF7ADFF08BDA1F16C00C0B2FFF7A7FF08BDA1F12C00C0B2FFF7A1FF08BD024A137843F08003137070477A640040014B18708A
:4009C000704700BF8C640040014B1878704700BF6C64004008B50146014800F05FFD08BD2A640040024B186820F07F40704700BF4A64004008B50146014800F04FFD08BD75
:400A00000A64004008B501E0FFF7ECFFFFF7DCFF10F0080FF8D108BD10B50B4C2046FFF7D9FF2046FFF7E6FF00F04AFD074A137843F01003137000F047FDFFF7E3FF012079
:400A4000FFF7BCFF10BD00BF7FA903009C64004008B5054B1B7823B9FFF7DEFF0122024B1A70FFF7A3FF08BD9281FF1F014B1B681864704708ED00E04001C0B2014B187099
:400A8000704700BF00E400E00122014B1A60704700E100E00122014B1A60704780E100E010B50446FFF7F6FF2046FFF7DFFF0720FFF7E2FFFFF7E8FF10BD00BF38B59DF89D
:400AC0001040651EEDB2032D51D8013809282ED8DFE800F0052D2D052D2D0F192D230F2B03D92548007840B222E02448007840B21EE00F2B03D92248007840B218E02148C0
:400B0000007840B214E00F2B03D91F48007840B20EE01E48007840B20AE00F2B03D91C48007840B204E01B48007840B200E0002001EB401101FB02F2D20B91B20D2B0BD8CB
:400B4000C3F10E0192B20A4191B2621E124800EB82020133937005E0631E0F4A02EB83030F229A70013C0C4B23F8241038BD002000F046FC38BD00BF180100491C0100494D
:400B8000190100491D0100491A0100491E0100491B0100491F0100499481FF1FF8B5074600F08EFC06460D4D2B7843F003032B700B4C237843F0030323700A4B1F70032048
:400BC00000F036FC2B7803F0FC032B70237803F0FC032370304600F077FCF8BDF8460040F946004092580040F8B504460022C04B1A7401285BD13022BE4B1A700422023387
:400C00001A70062201331A70002501331D7001331D703F2201331A7002331D7001331D7001331D7001260A331E70502203F527631A700A2701331F702C2201331A70013396
:400C40001D70442203331A70482201331A7001331E7002331E70112201331A70192201331A70972201331A705220FFF797FF5822A14B1A7001331D7005331E7001331E707C
:400C800001331D7001331F70284600F0A5FA43F233329A4B1A603146052000F0C1FA31462A2000F041FB96491D2000F0CBFB022C5DD138228F4B1A70042202331A7006228D
:400CC00001331A70002501331D7001331D703F2201331A7002331D7001331D7001331D7001260A331E70502203F527631A70272201331A702C2201331A7001331D70552271
:400D000003331A705A2201331A70052701331F7002331E70112201331A70192201331A70972201331A704420FFF738FF5822724B1A7001331D7005331F70022201331A70EA
:400D400001331D7001331D70284600F045FA4FF47A426A4B1A603146384600F061FA3146252000F0E1FA67491D2000F06BFB032C5DD138225F4B1A70042202331A70062224
:400D800001331A70002501331D7001331D703F2201331A7002331D7001331D7001331D7001260A331E70502203F527631A70272201331A702C2201331A7001331D705522B0
:400DC00003331A705A2201331A70052701331F7002331E70112201331A70192201331A70972201331A704420FFF7D8FE5822424B1A7001331D7005331F70022201331A70BB
:400E000001331D7001331D70284600F0E5F94FF47A423A4B1A603146384600F001FA3146252000F081FA38491D2000F00BFB042C5DD138222F4B1A70042202331A70062272
:400E400001331A70002401331C7001331C703F2201331A7002331C7001331C7001331C7001250A331D70502203F527631A70272201331A702C2201331A7001331C705522F8
:400E800003331A705A2201331A70052601331E7002331D70112201331A70192201331A70972201331A704420FFF778FE5822124B1A7001331C7005331E70022201331A708F
:400EC00001331C7001331C70204600F085F94FF47A420A4B1A602946304600F0A1F92946252000F021FA09491D2000F0ABFAF8BD9481FF1F004E004094580040AC81FF1F91
:400F0000A9110000AD110000B1110000B51100002DE9F04182B0394D4FF0010885F80080374E00247474102000F068F9102000F0E9F907211D2000F099FA0427314B1F703B
:400F400001331C7007331C702F4A137843F0180313702E4B1C7003F2F5231C7001331C700A22A3F209331A7001331C7002331C705B2205331A705E2201331A7004331C7070
:400F80001422A3F68C231A70CDF8008010234FF4004248F6F0510220FFF790FD0223009310234FF4004249F2DA012046FFF786FD0323009310234FF4004249F2DA012046B6
:400FC000FFF77CFD009710234FF4004249F2DA012046FFF773FD2B78013B06EB83039A780B4B1A702B78013B36F82320094B1A802878FFF7F9FD02B0BDE8F081EE80FF1FEB
:401000009481FF1F96580040075B0040935800400E4E00400C4E004070B500F051FA06462A4B1B782A4B1A7842F001021A701A7842F010021A7010331A7842F001021A70DE
:401040001A7842F010021A70224D2B7843F002032B70214C237843F0020323701F4A137843F003031370032000F0E2F92B7803F0FD032B70237803F0FD032370184A13787B
:4010800043F0060313707A22164B1A70164A137843F0010313701032137843F0010313700F3A137843F0010313701032137843F0010313704FF000530C4A1360A2F5C07285
:4010C0001360304600F000FA70BD00BFEE80FF1FAA430040F8460040F9460040915800407758004082580040A143004080E200E008B5084B9B7C4BB9064BDB7C13F0FF0FDF
:4011000001D1FFF705FF0122024B9A74FFF784FF08BD00BF9481FF1F024A137843F0010313707047004E0040094B1B7C13F0FF0F03D0074B5B7CDBB203E0064B1B7803F020
:401140000103012B01D00028EED01846704700BF9481FF1F014E00400E4B1B7803F00303012B03D80C4B188880B209E00A4A12780A49087842EA0020032B01D1084B1B7811
:40118000084B1B7C13F0FF0F02D00022054B5A7400B27047144E0040104E0040114E0040124E00409481FF1F704700BF704700BF704700BF704700BF10B5002404E02046FC
:4011C000FFF750F90134E4B2012CF8D9FF22014B1A7010BDEF80FF1F10B50446FFF7ECFF2046FFF731F9014B1C7010BDEF80FF1F014B188880B2704780400040034B1A7839
:4012000000F0F80010431870704700BF82400040024B187800F00700704700BF8240004070B505460E46FFF7F3FF0446FFF7E0FFA84256D02B4B1B7803F0010294B900B14F
:4012400085B938B9284B1D80284A137803F0BF03137070BD254A137843F040031370224B1D8070BD22B3002321490B7001240F310C7004310B700C390B7803F07F030B707D
:401280001A4B1B7813F0080F00D08DB9194B18800721013B1970164B1B7813F0010FFAD110490B7803F0FE030B700021104B19700C4B1B7813F0010F0DD00E4B1D800EB16C
:4012C000032200E001220A4B1A70094B1B7813F0010FFAD170BD044B1D8002490B7813430B7070BDA243004080400040824000400140004002400040014B188880B270473E
:4013000000410040034B1A7800F0F80010431870704700BF02410040024B187800F00700704700BF0241004070B505460E46FFF7F3FF0446FFF7E0FFA84256D02B4B1B78DF
:4013400003F0010294B900B185B938B9284B1D80284A137803F0BF03137070BD254A137843F040031370224B1D8070BD22B3002321490B70012413310C7004390B700839F3
:401380000B7803F07F030B701A4B1B7813F0080F00D08DB9194B18800721013B1970164B1B7813F0010FFAD110490B7803F0FE030B700021104B19700C4B1B7813F0010F8A
:4013C0000DD00E4B1D800EB1032200E001220A4B1A70094B1B7813F0010FFAD170BD044B1D8002490B7813430B7070BDA1430040004100400241004001400040024000407F
:4014000001BE704710B5044605E0084B186800F04FF8A4F50044B4F5004FF6D8034B586800FB04F000F044F810BD00BFF080FF1F08B5034B1B7A00FB03F000F039F808BDDE
:40144000F080FF1F70B504460E46074B1D681F2802D90020FFF7D4FF04F01F04103455F8240045F8246070BD08ED00E038B504460D46072902D90020FFF7C2FF1F2C02D918
:401480000020FFF7BDFF04F01F0000F1604000F564406D01EDB2057038BD00BFCBB20370C1F307234370C1F307418170704700BF0230800803D000BF01380046FCD17047B4
:4014C000EFF3108072B6704780F31088704700BF014B1868704700BF6081FF1F0E4B70B51E460E4C0025E41AA410A54204D056F8253098470135F8E700F046F8084B094C9E
:401500001E46E41AA4100025A54204D056F8253098470135F8E770BD9415000094150000941500009C15000010B5431E0A44914204D011F8014B03F8014FF8E710BD034695
:401540000244934202D003F8011BFAE77047000000000000035B0040244300404000000040510040300000000140001000140140000800400140000A004C01400002005031
:401580000140200043000000F8B500BFF8BC08BC9E4670474D00000009060000F8B500BFF8BC08BC9E46704729000000C0150000C880FF1FA00000004800000000000000E1
:4015C00000000000010203010000010200010003010200010000010048656C6C6F20576F726C6420210001FF0000E02EC05D00001800000000366E01000000000000000093
:401600000000000000000000000000000000000000000000000000008415000000000000000000000000000000000000000000000000000000000000000000000000000011
:401640000000000000000000000000000000000000000000000000000081FF1F000000000000000000000000000000000000000000000000000000000000000000000000CB
:40168000000000000000000000000000000000000000000000000000000000000000000000000000000000000000000000000000000000000000000000000000000000002A
:4016C00000000000000000000000000000000000000000000000000000000000000000000000000000000000000000000000000000000000000000000000000000000000EA
:4017000000000000000000000000000000000000000000000000000000000000000000000000000000000000000000000000000000000000000000000000000000000000A9
:401740000000000000000000000000000000000000000000000000000000000000000000000000000000000000000000000000000000000000000000000000000000000069
:020000040003F7
:0200000480007A
:40000000014500400164004001030140010901402B0A01400A0B01401F0C0140130D014001150140011B01400240014003410140024401400145014003460140034701408D
:400040000248014001490140014C0140024D0140035001400151014065018C0DE602B40138803E40405449FF4AFF4BFF4F015018528058045A045B045D995F0160406240A9
:4000800064406540668068806A806C806E80C054C9FFCAFFCBFFCD83CE03CF01D018DA04DD09DF01E040E240E440E540E680E880EA80EC80EE8018024280468048024C02A2
:4000C00070029A80A402D081D2181201220130013E01405445EC4602480749FF4AFF4BFF4D834E034F0150185401560458045A045B045D995F01604062406440654066804E
:4001000068806A806C806E800C0216801E8046804C024D044F0156805D045E805F0167408740C210C410D080D210D6D0D880EC10EC103220CC108620A620E6407C08DE0148
:400140009C0845089C08D001A508B408E8022510C820B510A508B508EC0801010D010F010003000000636300000080003C00000000000000000F0F0000000000000B0B00AD
:4001800000000000007F7F0000000000F00000F00B000000000000002A00180100000000000000000000000000000000000000000000000000000000000000000000000013
:4001C00000000000000000000000000000000000000000000000000000000000000000000000000000000000000000000000000000000000000000000000000000000000FF
:4002000000000000000000000000000000000000000000000000000000000000000000000000000000000000000000000000000000000000000000000000000000000000BE
:40024000000000000000000000000000000000000000000000000000000000000000000000000000000000000000000000000000000000000000000000000000000000007E
:40028000000000000000000000000000000000000000000000000000000000000000000000000000000000000000000000000000000000000000000000000000000000003E
:0200000490006A
:0400000000004005B7
:0200000490105A
:04000000BC90ACAF55
:0200000490303A
:02000000EBC152
:0200000490402A
:4000000000000000000000000000000000000000000000000000000000000000000000000000000000000000000000000000000000000000000000000000000000000000C0
:400040000000000000000000000000000000000000000000000000000000000000000000000000000000000000000000000000000000000000000000000000000000000080
:400080000000000000000000000000000000000000000000000000000000000000000000000000000000000000000000000000000000000000000000000000000000000040
:4000C0000000000000000000000000000000000000000000000000000000000000000000000000000000000000000000000000000000000000000000000000000000000000
:0200000490501A
:0C00000000012E16106900012E1DFC2AC4
:00000001FF